{
  "contractName": "FlipContract",
  "abi": [
    {
      "anonymous": false,
      "inputs": [
        {
          "indexed": true,
          "internalType": "address",
          "name": "previousOwner",
          "type": "address"
        },
        {
          "indexed": true,
          "internalType": "address",
          "name": "newOwner",
          "type": "address"
        }
      ],
      "name": "OwnershipTransferred",
      "type": "event"
    },
    {
      "anonymous": false,
      "inputs": [
        {
          "indexed": true,
          "internalType": "address",
          "name": "user",
          "type": "address"
        },
        {
          "indexed": true,
          "internalType": "uint256",
          "name": "bet",
          "type": "uint256"
        },
        {
          "indexed": true,
          "internalType": "bool",
          "name": "win",
          "type": "bool"
        },
        {
          "indexed": false,
          "internalType": "uint8",
          "name": "side",
          "type": "uint8"
        }
      ],
      "name": "bet",
      "type": "event"
    },
    {
      "anonymous": false,
      "inputs": [
        {
          "indexed": false,
          "internalType": "address",
          "name": "owner",
          "type": "address"
        },
        {
          "indexed": false,
          "internalType": "uint256",
          "name": "funding",
          "type": "uint256"
        }
      ],
      "name": "funded",
      "type": "event"
    },
    {
      "inputs": [],
      "name": "ContractBalance",
      "outputs": [
        {
          "internalType": "uint256",
          "name": "",
          "type": "uint256"
        }
      ],
      "stateMutability": "view",
      "type": "function",
      "constant": true
    },
    {
      "inputs": [],
      "name": "owner",
      "outputs": [
        {
          "internalType": "address",
          "name": "",
          "type": "address"
        }
      ],
      "stateMutability": "view",
      "type": "function",
      "constant": true
    },
    {
      "inputs": [],
      "name": "renounceOwnership",
      "outputs": [],
      "stateMutability": "nonpayable",
      "type": "function"
    },
    {
      "inputs": [
        {
          "internalType": "address",
          "name": "newOwner",
          "type": "address"
        }
      ],
      "name": "transferOwnership",
      "outputs": [],
      "stateMutability": "nonpayable",
      "type": "function"
    },
    {
      "inputs": [
        {
          "internalType": "uint8",
          "name": "side",
          "type": "uint8"
        }
      ],
      "name": "flip",
      "outputs": [
        {
          "internalType": "bool",
          "name": "",
          "type": "bool"
        }
      ],
      "stateMutability": "payable",
      "type": "function",
      "payable": true
    },
    {
      "inputs": [],
      "name": "withdrawAll",
      "outputs": [
        {
          "internalType": "uint256",
          "name": "",
          "type": "uint256"
        }
      ],
      "stateMutability": "nonpayable",
      "type": "function"
    },
    {
      "inputs": [],
      "name": "getBalance",
      "outputs": [
        {
          "internalType": "uint256",
          "name": "",
          "type": "uint256"
        }
      ],
      "stateMutability": "view",
      "type": "function",
      "constant": true
    },
    {
      "inputs": [],
      "name": "fundContract",
      "outputs": [],
      "stateMutability": "payable",
      "type": "function",
      "payable": true
    }
  ],
  "bytecode": "0x608060405234801561001057600080fd5b5061002d61002261003260201b60201c565b61003a60201b60201c565b6100fe565b600033905090565b60008060009054906101000a900473ffffffffffffffffffffffffffffffffffffffff169050816000806101000a81548173ffffffffffffffffffffffffffffffffffffffff021916908373ffffffffffffffffffffffffffffffffffffffff1602179055508173ffffffffffffffffffffffffffffffffffffffff168173ffffffffffffffffffffffffffffffffffffffff167f8be0079c531659141344cd1fd0a4f28419497f9722a3daafe3b4186f6b6457e060405160405180910390a35050565b610dbd8061010d6000396000f3fe60806040526004361061007b5760003560e01c8063853828b61161004e578063853828b61461011d5780638da5cb5b14610148578063bd097e2114610173578063f2fde38b1461017d5761007b565b806312065fe0146100805780633b668059146100ab578063638c0637146100d6578063715018a614610106575b600080fd5b34801561008c57600080fd5b506100956101a6565b6040516100a291906107ee565b60405180910390f35b3480156100b757600080fd5b506100c06101b0565b6040516100cd91906107ee565b60405180910390f35b6100f060048036038101906100eb9190610847565b6101b6565b6040516100fd919061088f565b60405180910390f35b34801561011257600080fd5b5061011b610366565b005b34801561012957600080fd5b506101326103ee565b60405161013f91906107ee565b60405180910390f35b34801561015457600080fd5b5061015d6104ca565b60405161016a91906108eb565b60405180910390f35b61017b6104f3565b005b34801561018957600080fd5b506101a4600480360381019061019f9190610932565b6105e5565b005b6000600154905090565b60015481565b60006101cc6002346106dd90919063ffffffff16565b47101561020e576040517f08c379a0000000000000000000000000000000000000000000000000000000008152600401610205906109e2565b60405180910390fd5b60008260ff161480610223575060018260ff16145b610262576040517f08c379a000000000000000000000000000000000000000000000000000000000815260040161025990610a74565b60405180910390fd5b60008260ff166002426102759190610ac3565b14156102f057346001600082825461028d9190610b23565b925050819055503373ffffffffffffffffffffffffffffffffffffffff166108fc6002346102bb9190610b57565b9081150290604051600060405180830381858888f193505050501580156102e6573d6000803e3d6000fd5b506001905061030e565b34600160008282546103029190610bb1565b92505081905550600090505b801515343373ffffffffffffffffffffffffffffffffffffffff167f271b3e8d94a67ce5e9cee03d78c310019308ea7075468a4eb2bac8b027b14c4d866040516103589190610c16565b60405180910390a450919050565b61036e6106f3565b73ffffffffffffffffffffffffffffffffffffffff1661038c6104ca565b73ffffffffffffffffffffffffffffffffffffffff16146103e2576040517f08c379a00000000000000000000000000000000000000000000000000000000081526004016103d990610c7d565b60405180910390fd5b6103ec60006106fb565b565b60006103f86106f3565b73ffffffffffffffffffffffffffffffffffffffff166104166104ca565b73ffffffffffffffffffffffffffffffffffffffff161461046c576040517f08c379a000000000000000000000000000000000000000000000000000000000815260040161046390610c7d565b60405180910390fd5b3373ffffffffffffffffffffffffffffffffffffffff166108fc479081150290604051600060405180830381858888f193505050501580156104b2573d6000803e3d6000fd5b50600047146104c4576104c3610c9d565b5b47905090565b60008060009054906101000a900473ffffffffffffffffffffffffffffffffffffffff16905090565b6104fb6106f3565b73ffffffffffffffffffffffffffffffffffffffff166105196104ca565b73ffffffffffffffffffffffffffffffffffffffff161461056f576040517f08c379a000000000000000000000000000000000000000000000000000000000815260040161056690610c7d565b60405180910390fd5b600034141561057d57600080fd5b610592346001546107bf90919063ffffffff16565b6001819055507fed7d0ddcc17abdb3935a0a23cd93e91b449dfeac7fd0def9f481ed5b37e18c4d33346040516105c9929190610ccc565b60405180910390a147600154146105e3576105e2610c9d565b5b565b6105ed6106f3565b73ffffffffffffffffffffffffffffffffffffffff1661060b6104ca565b73ffffffffffffffffffffffffffffffffffffffff1614610661576040517f08c379a000000000000000000000000000000000000000000000000000000000815260040161065890610c7d565b60405180910390fd5b600073ffffffffffffffffffffffffffffffffffffffff168173ffffffffffffffffffffffffffffffffffffffff1614156106d1576040517f08c379a00000000000000000000000000000000000000000000000000000000081526004016106c890610d67565b60405180910390fd5b6106da816106fb565b50565b600081836106eb9190610b57565b905092915050565b600033905090565b60008060009054906101000a900473ffffffffffffffffffffffffffffffffffffffff169050816000806101000a81548173ffffffffffffffffffffffffffffffffffffffff021916908373ffffffffffffffffffffffffffffffffffffffff1602179055508173ffffffffffffffffffffffffffffffffffffffff168173ffffffffffffffffffffffffffffffffffffffff167f8be0079c531659141344cd1fd0a4f28419497f9722a3daafe3b4186f6b6457e060405160405180910390a35050565b600081836107cd9190610bb1565b905092915050565b6000819050919050565b6107e8816107d5565b82525050565b600060208201905061080360008301846107df565b92915050565b600080fd5b600060ff82169050919050565b6108248161080e565b811461082f57600080fd5b50565b6000813590506108418161081b565b92915050565b60006020828403121561085d5761085c610809565b5b600061086b84828501610832565b91505092915050565b60008115159050919050565b61088981610874565b82525050565b60006020820190506108a46000830184610880565b92915050565b600073ffffffffffffffffffffffffffffffffffffffff82169050919050565b60006108d5826108aa565b9050919050565b6108e5816108ca565b82525050565b600060208201905061090060008301846108dc565b92915050565b61090f816108ca565b811461091a57600080fd5b50565b60008135905061092c81610906565b92915050565b60006020828403121561094857610947610809565b5b60006109568482850161091d565b91505092915050565b600082825260208201905092915050565b7f54686520636f6e7472616374206861736e277420656e6f756768742066756e6460008201527f7300000000000000000000000000000000000000000000000000000000000000602082015250565b60006109cc60218361095f565b91506109d782610970565b604082019050919050565b600060208201905081810360008301526109fb816109bf565b9050919050565b7f496e636f727265637420736964652c206e6565647320746f2062652030206f7260008201527f2031000000000000000000000000000000000000000000000000000000000000602082015250565b6000610a5e60228361095f565b9150610a6982610a02565b604082019050919050565b60006020820190508181036000830152610a8d81610a51565b9050919050565b7f4e487b7100000000000000000000000000000000000000000000000000000000600052601260045260246000fd5b6000610ace826107d5565b9150610ad9836107d5565b925082610ae957610ae8610a94565b5b828206905092915050565b7f4e487b7100000000000000000000000000000000000000000000000000000000600052601160045260246000fd5b6000610b2e826107d5565b9150610b39836107d5565b925082821015610b4c57610b4b610af4565b5b828203905092915050565b6000610b62826107d5565b9150610b6d836107d5565b9250817fffffffffffffffffffffffffffffffffffffffffffffffffffffffffffffffff0483118215151615610ba657610ba5610af4565b5b828202905092915050565b6000610bbc826107d5565b9150610bc7836107d5565b9250827fffffffffffffffffffffffffffffffffffffffffffffffffffffffffffffffff03821115610bfc57610bfb610af4565b5b828201905092915050565b610c108161080e565b82525050565b6000602082019050610c2b6000830184610c07565b92915050565b7f4f776e61626c653a2063616c6c6572206973206e6f7420746865206f776e6572600082015250565b6000610c6760208361095f565b9150610c7282610c31565b602082019050919050565b60006020820190508181036000830152610c9681610c5a565b9050919050565b7f4e487b7100000000000000000000000000000000000000000000000000000000600052600160045260246000fd5b6000604082019050610ce160008301856108dc565b610cee60208301846107df565b9392505050565b7f4f776e61626c653a206e6577206f776e657220697320746865207a65726f206160008201527f6464726573730000000000000000000000000000000000000000000000000000602082015250565b6000610d5160268361095f565b9150610d5c82610cf5565b604082019050919050565b60006020820190508181036000830152610d8081610d44565b905091905056fea2646970667358221220873bb73fc2226db809fb77becee17e6c4bcd938f177942bf1be5fe9fb689683b64736f6c634300080a0033",
  "immutableReferences": {},
  "source": "import \"../../node_modules/@openzeppelin/contracts/access/Ownable.sol\";\nimport \"../../node_modules/@openzeppelin/contracts/utils/math/SafeMath.sol\";\n\npragma solidity ^0.8.9;\n\ncontract FlipContract is Ownable {\n    \n    using SafeMath for uint256;\n\n    uint public ContractBalance;\n\n    event bet(address indexed user, uint indexed bet, bool indexed win, uint8 side);\n    event funded(address owner, uint funding);\n\n    // Function to simulate coin flip 50/50 randomnes\n    function flip(uint8 side) public payable returns(bool){\n        require(address(this).balance >= msg.value.mul(2), \"The contract hasn't enought funds\");\n        require(side == 0 || side == 1, \"Incorrect side, needs to be 0 or 1\");\n        bool win;\n        if(block.timestamp % 2 == side){\n            ContractBalance -= msg.value;\n            payable(msg.sender).transfer(msg.value * 2);\n            win = true;\n        }\n        else{\n            ContractBalance += msg.value;\n            win = false;\n        }\n        emit bet(msg.sender, msg.value, win, side);\n    }\n    // Function to Withdraw Funds\n    function withdrawAll() public onlyOwner returns(uint){\n        payable(msg.sender).transfer(address(this).balance);\n        assert(address(this).balance == 0);\n        return address(this).balance;\n    }\n    // Function to get the Balance of the Contract\n    function getBalance() public view returns (uint) {\n        return ContractBalance;\n    }\n    // Fund the Contract\n    function fundContract() public payable onlyOwner {\n        require(msg.value != 0);\n        ContractBalance = ContractBalance.add(msg.value);\n        emit funded(msg.sender, msg.value);\n        assert(ContractBalance == address(this).balance);\n    }\n\n}",
  "sourcePath": "/Users/pierre-macmini/Desktop/GIT/thegraphWeb3/local_contract/src/contracts/flipcontract.sol",
  "compiler": {
    "name": "solc",
    "version": "0.8.10+commit.fc410830.Emscripten.clang"
  },
  "schemaVersion": "3.4.3",
  "updatedAt": "2021-12-17T00:13:41.847Z",
  "networkType": "ethereum",
  "devdoc": {
    "kind": "dev",
    "methods": {
      "owner()": {
        "details": "Returns the address of the current owner."
      },
      "renounceOwnership()": {
        "details": "Leaves the contract without owner. It will not be possible to call `onlyOwner` functions anymore. Can only be called by the current owner. NOTE: Renouncing ownership will leave the contract without an owner, thereby removing any functionality that is only available to the owner."
      },
      "transferOwnership(address)": {
        "details": "Transfers ownership of the contract to a new account (`newOwner`). Can only be called by the current owner."
      }
    },
    "version": 1
  },
  "userdoc": {
    "kind": "user",
    "methods": {},
    "version": 1
  }
}